# エンディアン違いの送受信

## エンディアン is 何？

値 `0x12345678`(10進数では305419896)`をメモリに置いてみる。

|メモリ番地|big|little|
|:--:|--:|--:|
|0x100|0x12|0x78|
|0x101|0x34|0x56|
|0x102|0x56|0x34|
|0x103|0x78|0x12|

ビッグエンディアンとは、データの先頭バイトを小さいアドレスに置く方式。  
リトルエンディアンとは、データの先頭バイトを大きいアドレスに置く方式。  

## TCPDUMP

見ても分からない部分は省略している。

```console
sudo tcpdump -i any port 50000 -X
tcpdump: data link type LINUX_SLL2
tcpdump: verbose output suppressed, use -v[v]... for full protocol decode
listening on any, link-type LINUX_SLL2 (Linux cooked v2), snapshot length 262144 bytes
# クライアント（53510）→サーバー（50000）
# TCPハンドシェイク開始
# Flags [S]：SYN通信（TCP接続初期化）
19:28:07.480880 lo    In  IP localhost.53510 > localhost.50000: Flags [S], seq 1612311344, win 65495, options [mss 65495,sackOK,TS val 2594040661 ecr 0,nop,wscale 7], length 0
# サーバー→クライアント
# TCPハンドシェイク応答
# Flags [S.]: SYN-ACK通信（TCP接続許可）
19:28:07.480888 lo    In  IP localhost.50000 > localhost.53510: Flags [S.], seq 1384871597, ack 1612311345, win 65483, options [mss 65495,sackOK,TS val 2594040661 ecr 2594040661,nop,wscale 7], length 0
# クライアント→サーバー
# Flags [.]: ACK通信
19:28:07.480894 lo    In  IP localhost.53510 > localhost.50000: Flags [.], ack 1, win 512, options [nop,nop,TS val 2594040661 ecr 2594040661], length 0
# クライアント→サーバー
# Flags [P.]: データのPUSH通信
# seq 1:13: シーケンス範囲が1～13（12バイトのデータを送信）
19:28:07.480920 lo    In  IP localhost.53510 > localhost.50000: Flags [P.], seq 1:13, ack 1, win 512, options [nop,nop,TS val 2594040661 ecr 2594040661], length 12
        0x0000:  4500 0040 6dff 4000 4006 ceb6 7f00 0001  E..@m.@.@.......
        0x0010:  7f00 0001 d106 c350 6019 eb31 528b 76ae  .......P`..1R.v.
        0x0020:  8018 0200 fe34 0000 0101 080a 9a9d eb55  .....4.........U
        0x0030:  9a9d eb55 0000 ffe7 0000 007d 0001 fff8  ...U.......}....
# サーバー→クライアント
# 受信完了応答
# Flags [.]: ACK通信
19:28:07.480924 lo    In  IP localhost.50000 > localhost.53510: Flags [.], ack 13, win 512, options [nop,nop,TS val 2594040661 ecr 2594040661], length 0
# クライアント→サーバー
# 接続終了（FIN）
# Flags [F.]: FIN通信
19:28:07.480970 lo    In  IP localhost.53510 > localhost.50000: Flags [F.], seq 13, ack 1, win 512, options [nop,nop,TS val 2594040661 ecr 2594040661], length 0
# サーバー→クライアント
# 接続終了応答
# Flags [.]: ACK通信
19:28:07.527217 lo    In  IP localhost.50000 > localhost.53510: Flags [.], ack 14, win 512, options [nop,nop,TS val 2594040708 ecr 2594040661], length 0
# サーバー→クライアント
# 切断要求
# Flags [F.]: FIN通信
19:28:11.159610 lo    In  IP localhost.50000 > localhost.53510: Flags [F.], seq 1, ack 14, win 512, options [nop,nop,TS val 2594044340 ecr 2594040661], length 0
# クライアント→サーバー
# 切断要求応答
# Flags [.]: ACK通信
19:28:11.159619 lo    In  IP localhost.53510 > localhost.50000: Flags [.], ack 2, win 512, options [nop,nop,TS val 2594044340 ecr 2594044340], length 0
```

## 送信データの確認

```console
19:28:07.480920 lo    In  IP localhost.53510 > localhost.50000: Flags [P.], seq 1:13, ack 1, win 512, options [nop,nop,TS val 2594040661 ecr 2594040661], length 12
        comment   0 1  2 3  4 5  6 7  8 9  a b  c d  e f
        0x0000:  4500 0040 6dff 4000 4006 ceb6 7f00 0001  E..@m.@.@.......
        0x0010:  7f00 0001 d106 c350 6019 eb31 528b 76ae  .......P`..1R.v.
        0x0020:  8018 0200 fe34 0000 0101 080a 9a9d eb55  .....4.........U
        0x0030:  9a9d eb55 0000 ffe7 0000 007d 0001 fff8  ...U.......}....
```

|データ|意味|
|--:|:--|
|__IP Header__|Big Endian|
|4|IPv4|
|5|ヘッダバイト長(5*4=20byte)|
|00|サービスタイプ|
|0040|IPヘッダ＋TCPヘッダ＋データのサイズ|
|6dff|パケット識別子|
|4|フラグ|
|000|フラグメントオフセット|
|40|TTL|
|06|プロトコルID（TCP）|
|ceb6|ヘッダチェックサム|
|7f00 0001|送信元IPアドレス（127.0.0.1）|
|7f00 0001|送信先IPアドレス（127.0.0.1）|
|（無し）|オプション|
|（無し）|パディング|
|__TCP Header__|Big Endian|
|d106|送信元ポート番号（53510）|
|c350|送信先ポート番号（50000）|
|6019 eb31|シーケンス番号（送信元からのバイト数）|
|528b 76ae|ACK番号（受信元が確認したバイト数）|
|8|TCPヘッダ長（8*4=32byte）|
|0|（空フラグ）|
|1|ACKフラグ|
|8|PSHフラグ|
|0200|ウィンドウサイズ（受信元バッファサイズ）|
|fe34|チェックサム|
|0000|緊急ポインタ|
|0101 080a 9a9d eb55 9a9d eb55|オプション|
|（無し）|パディング|
|__Payload__|プログラム依存|
|0000 ffe7|int32_tデータ|
|0000 007d|int32_tデータ|
|0001|int16_tデータ|
|fff8|int16_tデータ|

## プログラムのログ

先頭の`int32_t`データに注目してエンディアンがいつのタイミングでどんな格納になっているかを確認してみよう。

```console
1:-402718720(0xe7ff0000)
->    +65511(0x0000ffe7)
2:+2097152000(0x7d000000)
->      +125(0x0000007d)
3:      +256(0x00000100)
->        +1(0x00000001)
4:     -1793(0xfffff8ff)
->        -8(0xfffffff8)
raw1_b
DEC: -402718720
byte(4): 0xE7FF0000
byte(2): 0x00000000, 0x0000E7FF
byte(1): 0x00000000, 0x00000000, 0x000000FF, 0x000000E7

raw1_b_
DEC: 65511
byte(4): 0x0000FFE7
byte(2): 0x0000FFE7, 0x00000000
byte(1): 0x000000E7, 0x000000FF, 0x00000000, 0x00000000
```

## まとめ

|データ種類|10進数|16進数|0x0|0x1|0x2|0x3|
|:--|--:|--:|:--:|:--:|:--:|:--:|
|電文|||00|00|ff|e7|
|std::array<uint8_t,12>|||00|00|ff|e7|
|uint32_t (big)|-402718720|0xe7ff0000|00|00|ff|e7|
|uint32_t (little)|65511|0x0000ffe7|e7|ff|00|00|

以下の流れが分かる。  

- `recv()`関数は、電文をそのままのビット列で受信する
- `std::memcpy()`関数は、メモリをそのままのビット列でコピーする
- `std::printf("0x%08x")`関数は、後ろ（0x3）から逆順にメモリ内部をHEX表示する（リトルエンディアンなので当然）
